:020000040800F2
:10000000D0060020290200083D0E0008610D0008FE
:10001000390E000821040008690F000800000000E4
:10002000000000000000000000000000710E000849
:1000300025040008000000006D0E0008A50E000851
:10004000430200084302000843020008430200087C
:10005000430200084302000843020008430200086C
:10006000430200084302000843020008430200085C
:10007000430200084302000843020008430200084C
:10008000430200084302000843020008430200083C
:10009000430200084302000843020008430200082C
:1000A000430200084302000843020008430200081C
:1000B000430200084302000843020008430200080C
:1000C00043020008430200084302000843020008FC
:1000D00043020008430200084302000843020008EC
:1000E00043020008430200084302000843020008DC
:1000F00043020008430200084302000843020008CC
:1001000043020008430200084302000843020008BB
:1001100043020008430200084302000843020008AB
:10012000430200084302000843020008430200089B
:10013000430200084302000843020008430200088B
:10014000430200084302000843020008430200087B
:10015000430200084302000843020008430200086B
:10016000430200084302000843020008430200085B
:100170004302000843020008430200080000000098
:10018000430200084302000800F002F800F03CF8C7
:100190000AA090E8000C82448344AAF10107DA45E2
:1001A00001D100F031F8AFF2090EBAE80F0013F0F8
:1001B000010F18BFFB1A43F001031847580E000047
:1001C000780E0000103A24BF78C878C1FAD85207D8
:1001D00024BF30C830C144BF04680C6070470000C1
:1001E0000023002400250026103A28BF78C1FBD840
:1001F000520728BF30C148BF0B6070471FB500F0E1
:10020000F4FE1FBD10B510BD00F0D0F81146FFF789
:10021000F5FF00F0D5FE00F0EEF803B4FFF7F2FFB3
:1002200003BC00F0F5F80000094880470948004782
:10023000FEE7FEE7FEE7FEE7FEE7FEE7FEE7FEE796
:10024000FEE7FEE704480549054A064B70470000F3
:10025000550F000889010008D0000020D0060020BA
:10026000D0020020D002002053EA020C00F0698086
:100270002DE9F04B4FF00006002B1FBFB3FA83F5BA
:1002800003FA05F424FA05F65E4012BF1643B2FAEB
:1002900082F502FA05F4C5F120051EBF22FA05FC1D
:1002A00044EA0C04203556EA044C4FEA144418BFC3
:1002B000641C4FF000084FF00009904271EB030CF2
:1002C00039D3002919BFB1FA81F701FA07F6B0FA5C
:1002D00080F700FA07F6C7F120071EBF20FA07FCD7
:1002E00046EA0C062037B6FBF4FCA7EB0507103FE7
:1002F00007F01F0BCBF120062CFA06F60CFA0BFBCD
:1003000044BFB3460026202FA4BF5E464FF0000B2B
:100310005BEA060C08BF4FF0010B19EB0B0948EB29
:100320000608ABFB027C06FB02CC0BFB03CCC01B1C
:1003300071EB0C01C1E70B46024641464846BDE859
:10034000F08B13B5084318BF4FF0FF300146AFF3F1
:100350000080BDE81C4070474FF0000200B5134616
:1003600094469646203922BFA0E80C50A0E80C50D5
:10037000B1F12001BFF4F7AF090728BFA0E80C5086
:1003800048BF0CC05DF804EB890028BF40F8042B7F
:1003900008BF704748BF20F8022B11F0804F18BFEC
:1003A00000F8012B7047704770477047754600F0A2
:1003B0002BF8AE4605006946534620F007008546F7
:1003C00018B020B5FFF73EFFBDE820404FF0000613
:1003D0004FF000074FF000084FF0000BAC46ACE8C0
:1003E000C009ACE8C009ACE8C009ACE8C00921F01C
:1003F00007018D46704710B50446AFF300802046D4
:10040000BDE81040FFF709BF00487047100000200A
:1004100001491820ABBEFEE726000200704700002D
:10042000FEE700007047000072B600BFFEE7000064
:10043000B0B5044600F0ECF8054640F20400C2F204
:1004400000000078611C18BF044400BF00F0E0F811
:10045000401BA042FAD3B0BD2DE9F04F83B000F1AC
:100460003E4202F1FF724FEAB22241F6004701928A
:10047000C4F2020708224FF0010E00254FF0000AD7
:100480004FF00008B84208BF072200920AE000BF00
:1004900008F101080AF1040AB8F1100F05F102058C
:1004A00000F0A4800C680EFA08FB14EA0B09EFD0E8
:1004B0004C6804F0030CACF1010EBEF1010F11D831
:1004C0000322876802FA05F6CA68B743AA403A438E
:1004D00082604268C4F3001722EA0B0207FA08F7A9
:1004E0003A434260BCF1030F1CD0C26803238E68FC
:1004F00003FA05F7BA4306FA05F73A43BCF1020FCF
:10050000C2600FD16FF0030202EA580202440AF0FF
:100510001C060F23176A03FA06F40B69A743B340BE
:100520003B431362026803234F68AB409A4307F0D2
:100530000303AB401A4317F4403F4FF0010E026033
:10054000A6D0002243F644030292C4F202031A68C2
:1005500043F6004442F480421A601A68C4F201046F
:1005600002F480420292029A28F003024FF6084BEE
:100570002244CFF6FF7B52F80B300AF00C070F260F
:10058000BE4023EA060C019B009E072B38BF1E4687
:1005900006FA07F747EA0C0342F80B30A2684B68EB
:1005A00042EA090743F60C4CDE0258BF22EA09076B
:1005B000A760C4F2010CDCF800209E0242EA0907A1
:1005C00058BF22EA0907CCF8007062689E0342EA2D
:1005D000090758BF22EA090767602268DB0342EA7D
:1005E000090358BF22EA0903236051E703B0BDE8BD
:1005F000F08F0000426902EA0103914341EA03419E
:1006000081617047002A08BF0904816170470000BA
:1006100040F2C800C2F200000068704740F20400D7
:1006200040F2C801C2F20000C2F2000100780A687C
:10063000104408607047000080B543F60040C4F2E3
:100640000200016841F400710160016841F48061B9
:100650000160016841F480710160032000F05CF8E2
:100660000F2000F005F800F02BF8002080BD0000FE
:10067000B0B540F20402C2F2000240F2000112786A
:10068000C2F200014FF47A730968B3FBF2F2044638
:10069000B1FBF2F1084600F05FFB0F2C4FF00105B3
:1006A0000CD858B94FF0FF3021460022002500F049
:1006B00023F840F20800C2F2000004602846B0BDF2
:1006C00082B0002043F640010190C4F202014A6862
:1006D00042F480424A604A6802F480420192019AE0
:1006E0000090086840F080500860086800F0805072
:1006F0000090009802B0704770B514460D4606464B
:1007000000F034FC2946224600F09AFB01463046B0
:1007100000F034FC70BD000080B500F041FC80BDED
:100720002DE9F041002800F08B8043F60808C4F260
:1007300002080446D8F8F8030D4600F00700884286
:1007400007D288F8F853D8F8F80300F00700A84259
:1007500076D12068810717D5410705D5D8F8001054
:1007600041F4E051C8F80010010705D5D8F8001091
:1007700041F46041C8F80010D8F80010A26821F0D8
:10078000F0011143C8F80010C0073FD1D8F8F803B2
:1007900000F00700A84207D988F8F853D8F8F80302
:1007A00000F00700A8424BD12068410707D5D8F8D0
:1007B0000010E26821F4E0511143C8F8001000076E
:1007C00008D5D8F80000216920F4604040EAC10053
:1007D000C8F8000000F054F8D8F8001041F2040204
:1007E000C1F30311C0F60002515C40F2000220FA8E
:1007F00001F140F20800C2F200000068C2F20002FB
:100800001160FFF735FF0020BDE8F0816068811EB0
:10081000022907D258F8081C89015CBF0120BDE8F5
:10082000F08110E0012807D158F8081C89035CBF4B
:100830000120BDE8F08106E058F8081C890702D4C1
:100840000120BDE8F081D8F8001021F00301084331
:10085000C8F80000FFF7DCFE064641F2883700BF0B
:10086000D8F80000616800F00C00B0EB810F8DD06B
:10087000FFF7CEFE801BB842F2D90320BDE8F0811D
:1008800010B543F60404C4F20204606800F00C00E2
:1008900008280AD0042819BF42F20040C0F2F40030
:1008A00047F64000C0F27D1010BD20682168236823
:1008B000490247F64001C0F27D1100F03F02C3F348
:1008C00088105CBF42F20041C0F2F401A1FB0001BC
:1008D0000023FFF7C9FC21680222C1F3014102EBAA
:1008E0004101B0FBF1F010BD2DE9F04182B00028CC
:1008F00000F0A2800446007843F60006C007C4F268
:10090000020643D0B06800F00C00042805D130681E
:1009100080033BD56068C8BB8EE0B06800F00C0077
:10092000082802D170684002F1D46568B5F5A02F9F
:100930000AD0B5F5803F0BD0306820F480303060AD
:10094000306820F4802006E0306840F48020306079
:10095000306840F480303060FFF75AFE002D0546C5
:1009600011D000BF3068800310D4FFF751FE401B48
:100970006428F7D922E100BFFFF74AFE401B642834
:100980004FF0030055D830688003F5D420788007F5
:100990001AD5B06810F00C0F09D0B06800F00C0048
:1009A000082840F08A807068400200F18680306834
:1009B000800702D5E06801283ED13068216920F027
:1009C000F80040EAC10030602078000738D4207871
:1009D00040074CD4A5695DB3B06800F00C0008284E
:1009E00040F09E80012D27D07068E16900F48002FC
:1009F0008A4221D1216A00F03F028A421CD147F687
:100A0000C071626A0140B1EB821F15D1A26A002356
:100A1000CFF6FF7303EBC23200F440316FF30F02E5
:100A2000914209D1E16A00F07060B0EB016F03D12F
:100A3000002002B0BDE8F081012002B0BDE8F081E5
:100A40006069002840F20000C4F2472057D001211D
:100A5000C0F8801EFFF7DCFD054600BF706F800701
:100A6000B5D4FFF7D5FD401B0228F7D9A6E0306CBE
:100A700010F080580AD100200190306C40F0805076
:100A80003064306C00F080500190019847F200070C
:100A9000C4F200073868C00524D4386840F4807078
:100AA0003860FFF7B5FD05463868C0051AD4FFF772
:100AB000AFFD401B0228F7D980E0E068002851D044
:100AC0000020C4F2472001210160FFF7A1FD054687
:100AD000306880073FF571AFFFF79AFD401B022891
:100AE000F6D96BE0A568052D50D0012D52D0306F9E
:100AF00020F001003067306F20F004004DE000214D
:100B0000C0F8801EFFF784FD054600BF706F8007A8
:100B10007FF55DAFFFF77CFD401B0228F6D94DE065
:100B20000027C4F2472700203866FFF771FD022D29
:100B300005460BD13068800158D5FFF769FD401B91
:100B400002284FF00300F5D973E700BF3068800139
:100B50007FF56EAFFFF75CFD401B02284FF00300EE
:100B6000F4D966E70020C4F2472000210160FFF7B6
:100B70004FFD0546306880077FF526AFFFF748FD3B
:100B8000401B02284FF00300F4D952E7306F40F0C9
:100B900004003067306F40F001003067FFF738FD28
:100BA000002D054641F2883714D000BF306F800712
:100BB00013D4FFF72DFD401BB842F7D9032002B034
:100BC000BDE8F081FFF724FD401BB8424FF0030061
:100BD0003FF62FAF306F8007F4D4B8F1000F7FF4E9
:100BE000F9AE306C20F080503064F3E604F11C055F
:100BF0002FCD08430021CFF6FF7140EA821001EBB0
:100C0000C3316FF30F0140EA0560084370600120B3
:100C10003866FFF7FDFC0446306880013FF508AFF9
:100C2000FFF7F6FC001B02284FF00300F4D900E7A1
:100C300070B538B10446406A30B10020206104F13B
:100C4000140007E0012070BD6068B0F5827F03D01A
:100C500004F11C00002101600026A66294F85100F6
:100C600020B9204684F8506000F03CF8022084F857
:100C7000510094E80F0001F48271056802F4044207
:100C800025F040050560114403F400622369114416
:100C900003F002026369114403F00102A369E569EC
:100CA000114403F40072114405F03802256A11441E
:100CB00005F08002A56A114305F40052114301605A
:100CC000626A042101EA134102F0100211444160FA
:100CD000C16921F40061C1610120666584F8510099
:100CE000304670BD80B586B043F200010068C4F2A2
:100CF0000101002288420592CDE90322029201926D
:100D000001D006B080BD43F630000092C4F202006C
:100D1000436943F480534361436903F48053009370
:100D2000009B0092036843F001030360006800F039
:100D3000010000900098A02001900220CDE902025D
:100D4000032004900520059001F5504001A9FFF70C
:100D500083FB06B080BD000080B500F08BF880BD3D
:100D6000FEE7000070B586B0002543F6300005951B
:100D7000CDE90355CDE901550095C4F202000168A3
:100D800040F2004441F0800101600168C4F20204B5
:100D900001F080010091009900950168002241F066
:100DA00001010160016844F2070601F001010091B0
:100DB00000990095016841F002010160006844F269
:100DC000070100F00200009000982046FFF71AFC8F
:100DD0000120CDE9020501A9204601960495FFF7FF
:100DE0003BFB06B070BD0000B0B540F2700043F2AE
:100DF0000001C2F20000C4F201014FF4827200232C
:100E000080E80E0000F10C014FF0020C4FF0010ED3
:100E10004FF40074082581E808500A21C0E906450E
:100E2000C0E90833C0E90A31FFF702FF002818BF04
:100E3000FFF7FAFAB0BD0000FEE70000FEE7000091
:100E400000F0070080F00703042B28BF04234FF0B5
:100E5000FF3C03380CFA03F338BF0020994381406C
:100E60000CFA00F022EA00000843704770470000C7
:100E700070470000B0B501380024B4EB106F1CBF00
:100E80000120B0BD4EF21005CEF2000568604FF0B3
:100E9000FF300F2100F072F80720AC602860204678
:100EA000B0BD000080B5FFF7B9FB80BD70B592B052
:100EB00006AC20463021FFF74FFA002543F64000EC
:100EC0000595CDE90355CDE901550095C4F2020021
:100ED0000168022641F080510160006800F08050F6
:100EE0000090009847F200000095C4F200000168ED
:100EF00041F480410160006800F480400090009857
:100F0000012006904FF4803007904FF480000D9040
:100F100019200E904FF4A870CDE90F06042011900F
:100F200020460C96FFF7E0FC88B90F20CDE90106BA
:100F30004FF4A05004904FF48050059001A8052173
:100F40000395FFF7EDFB002804BF12B070BDFFF75B
:100F50006BFA00004EF68850CEF20000016841F4B2
:100F60007001016070470000FEE700004EF60C5073
:100F7000CEF200000068C0F3022070474EF6145312
:100F800000F00F02CEF2000309011A4400F16043A1
:100F9000B0F1FF3FC8BF03F5644211707047000015
:100FA0004EF60C51CEF200010A684FF6FF031A40CC
:100FB00060F30A2242F0806040F0FD7008607047E4
:100FC000FFF73AFBFFF772FFFFF7CCFEFFF70CFFCE
:100FD00040F20044C4F2020420464FF48041FFF77F
:100FE00009FB6420FFF724FAF6E7F1EE100A4FF64A
:100FF000FF71C0F2C03120EA010040F04070E1EE24
:10100000100A704700000000000000000102030405
:101010000607080938100008000000201000000032
:10102000C40100084810000810000020C00600009D
:10103000E0010008000000000024F40001000000AE
:08104000100000000000000098
:040000050800018965
:00000001FF
