:020000040800F2
:10000000D006002029020008111900080D18000868
:100010000D19000821040008E92100080000000073
:10002000000000000000000000000000B5200008F3
:100030002504000800000000B91E00080D2100087A
:10004000430200084302000843020008430200087C
:10005000430200084302000843020008430200086C
:10006000430200084302000843020008430200085C
:10007000430200084302000843020008430200084C
:10008000430200084302000843020008430200083C
:10009000430200084302000843020008430200082C
:1000A000430200084302000843020008430200081C
:1000B000430200084302000843020008430200080C
:1000C00043020008430200084302000843020008FC
:1000D00043020008430200084302000843020008EC
:1000E00043020008430200084302000843020008DC
:1000F00043020008430200084302000843020008CC
:1001000043020008430200084302000843020008BB
:1001100043020008430200084302000843020008AB
:10012000430200084302000843020008430200089B
:10013000430200084302000843020008430200088B
:10014000430200084302000843020008430200087B
:10015000430200084302000843020008430200086B
:10016000430200084302000843020008430200085B
:100170004302000843020008430200080000000098
:10018000430200084302000800F002F800F03CF8C7
:100190000AA090E8000C82448344AAF10107DA45E2
:1001A00001D100F031F8AFF2090EBAE80F0013F0F8
:1001B000010F18BFFB1A43F001031847FC21000090
:1001C0001C220000103A24BF78C878C1FAD8520720
:1001D00024BF30C830C144BF04680C6070470000C1
:1001E0000023002400250026103A28BF78C1FBD840
:1001F000520728BF30C148BF0B6070471FB502F0DF
:10020000C5F81FBD10B510BD00F0D0F81146FFF7BE
:10021000F5FF02F033F800F0EEF803B4FFF7F2FF59
:1002200003BC00F0F5F80000094880470948004782
:10023000FEE7FEE7FEE7FEE7FEE7FEE7FEE7FEE796
:10024000FEE7FEE704480549054A064B70470000F3
:10025000D521000889010008D0000020D006002028
:10026000D0020020D002002053EA020C00F0698086
:100270002DE9F04B4FF00006002B1FBFB3FA83F5BA
:1002800003FA05F424FA05F65E4012BF1643B2FAEB
:1002900082F502FA05F4C5F120051EBF22FA05FC1D
:1002A00044EA0C04203556EA044C4FEA144418BFC3
:1002B000641C4FF000084FF00009904271EB030CF2
:1002C00039D3002919BFB1FA81F701FA07F6B0FA5C
:1002D00080F700FA07F6C7F120071EBF20FA07FCD7
:1002E00046EA0C062037B6FBF4FCA7EB0507103FE7
:1002F00007F01F0BCBF120062CFA06F60CFA0BFBCD
:1003000044BFB3460026202FA4BF5E464FF0000B2B
:100310005BEA060C08BF4FF0010B19EB0B0948EB29
:100320000608ABFB027C06FB02CC0BFB03CCC01B1C
:1003300071EB0C01C1E70B46024641464846BDE859
:10034000F08B13B5084318BF4FF0FF300146AFF3F1
:100350000080BDE81C4070474FF0000200B5134616
:1003600094469646203922BFA0E80C50A0E80C50D5
:10037000B1F12001BFF4F7AF090728BFA0E80C5086
:1003800048BF0CC05DF804EB890028BF40F8042B7F
:1003900008BF704748BF20F8022B11F0804F18BFEC
:1003A00000F8012B7047704770477047754600F0A2
:1003B0002BF8AE4605006946534620F007008546F7
:1003C00018B020B5FFF73EFFBDE820404FF0000613
:1003D0004FF000074FF000084FF0000BAC46ACE8C0
:1003E000C009ACE8C009ACE8C009ACE8C00921F01C
:1003F00007018D46704710B50446AFF300802046D4
:10040000BDE81040FFF709BF00487047100000200A
:1004100001491820ABBEFEE726000200704700002D
:10042000FFE7FEE77047000072B6FFE7FEE7000057
:1004300080B584B0039000F011FA02900398019007
:100440000198013048B1FFE740F20400C2F2000019
:100450000178019808440190FFE7FFE700F0FEF9FA
:100460000299401A0199884201D2FFE7F6E704B0E9
:1004700080BD00008EB00D900C9100200A90099074
:1004800008900B90FFE70B980F2800F2CC81FFE754
:100490000B99012088400A900C9800680A9908403E
:1004A000099009980A99884240F0B881FFE70C98B2
:1004B000406800F00300012807D0FFE70C9840686F
:1004C00000F0030002282FD1FFE70D988068089004
:1004D0000B984100032000FA01F108988843089026
:1004E0000C98C0680B99490000FA01F1089808437C
:1004F000089008980D9988600D98406808900B99AD
:10050000012000FA01F10898884308900C9840688F
:10051000C0F300100B9900FA01F108980843089005
:1005200008980D994860FFE70C98406800F00300B8
:10053000032818D0FFE70D98C06808900B98410079
:10054000032000FA01F10898884308900C9880680D
:100550000B99490000FA01F108980843089008989F
:100560000D99C860FFE70C98406800F0030002286E
:1005700026D1FFE70D980B996FF0030202EA5101B3
:100580000844006A08900B9800F0070081000F20D3
:1005900000FA01F10898884308900C9800690B99BB
:1005A00001F00701890000FA01F10898084308905A
:1005B00008980D990B9B02EA530211440862FFE769
:1005C0000D98006808900B984100032000FA01F193
:1005D0000898884308900C98406800F003000B9935
:1005E000490000FA01F108980843089008980D990D
:1005F00008600C9880798007002800F00E81FFE7E2
:10060000FFE70020079043F64400C4F202000168AF
:1006100041F480410160006800F480400790079831
:10062000FFE70B9820F0030043F60801C4F2010134
:10063000405808900B9800F0030081000F2000FA4A
:1006400001F10898884308900D980021C4F2020136
:10065000884203D1FFE7002006905EE00D9840F24B
:100660000041C4F20201884203D1FFE70120059056
:1006700050E00D9840F60001C4F20201884203D117
:10068000FFE70220049042E00D9840F60041C4F2DA
:100690000201884203D1FFE70320039034E00D9864
:1006A00041F20001C4F20201884203D1FFE70420B5
:1006B000029026E00D9841F20041C4F20201884206
:1006C00003D1FFE70520019018E00D9841F60001E5
:1006D000C4F20201884203D1FFE7062000900AE03D
:1006E0000D9941F60042C4F202020820914208BF6F
:1006F00007200090FFE700980190FFE70198029023
:10070000FFE702980390FFE703980490FFE704983F
:100710000590FFE705980690FFE70698C0B20B9991
:1007200001F00301890000FA01F1089808430890DC
:1007300008980B9921F0030143F60802C4F2010264
:10074000885043F60840C4F20100006808900999F7
:100750000898884308900C988079C006002805D531
:10076000FFE70999089808430890FFE7089843F6BF
:100770000841C4F20101086043F60C40C4F20100D4
:100780000068089009990898884308900C98807927
:100790008006002805D5FFE70999089808430890C6
:1007A000FFE7089843F60C41C4F20101086043F6E4
:1007B0000440C4F201000068089009990898884331
:1007C00008900C9880798007002805D5FFE70999E3
:1007D000089808430890FFE7089843F60441C4F2DC
:1007E0000101086043F60040C4F20100006808906F
:1007F00009990898884308900C988079C00728B117
:10080000FFE70999089808430890FFE7089843F61E
:100810000041C4F201010860FFE7FFE7FFE70B9822
:1008200001300B902FE60EB07047000082B00190AF
:10083000ADF802108DF801209DF8010028B1FFE706
:10084000BDF802000199886105E0BDF802000004CE
:1008500001998861FFE702B07047000040F2CC00C8
:10086000C2F200000068704740F20400C2F20000CB
:10087000027840F2CC01C2F200010868104408601E
:100880007047000080B543F60041C4F202010868D9
:1008900040F400700860086840F4806008600868F0
:1008A00040F480700860032000F080F80F2000F012
:1008B00005F800F03BF8002080BD000080B582B054
:1008C000009040F20000C2F20000006840F2040113
:1008D000C2F200010A784FF47A71B1FBF2F1B0FB79
:1008E000F1F000F08BFF20B1FFE701208DF8070049
:1008F00018E000980F280DD8FFE700994FF0FF305F
:10090000002200F039F8009840F20801C2F200011C
:10091000086003E001208DF8070003E000208DF857
:100920000700FFE79DF8070002B080BD82B0FFE737
:100930000020019043F64400C4F20200016841F433
:1009400080410160006800F4804001900198FFE759
:10095000FFE70020009043F64000C4F20200016867
:1009600041F080510160006800F0805000900098D4
:10097000FFE702B07047000080B586B08DF8170021
:10098000049103920020029001F030FC02909DF946
:100990001700019002980499039A00F0BBFF0146EA
:1009A000019801F02BFC06B080BD000080B582B03C
:1009B0000190019801F044FC02B080BD80B584B084
:1009C00002900191029820B9FFE701208DF80F00F5
:1009D00021E1019843F60041C4F20201096801F0E7
:1009E0000701884212D9FFE7019943F60040C4F29B
:1009F00002000170006800F007000199884204D0ED
:100A0000FFE701208DF80F0005E1FFE7029800786D
:100A1000800700282AD5FFE70298007840070028C1
:100A200009D5FFE743F60801C4F20201086840F463
:100A3000E0500860FFE7029800780007002809D519
:100A4000FFE743F60801C4F20201086840F4604081
:100A50000860FFE743F60801C4F20201086820F0CD
:100A6000F000029A926810430860FFE7029800784D
:100A7000C00700286ED0FFE702984068012811D116
:100A8000FFE743F60000C4F20200006800F4003102
:100A90000020B0EB514F04D1FFE701208DF80F008B
:100AA000B9E02CE002984068022805D0FFE70298E0
:100AB0004068032811D1FFE743F60000C4F20200AA
:100AC000006800F000710020B0EB516F04D1FFE727
:100AD00001208DF80F009EE010E043F60000C4F204
:100AE0000200006800F002010020B0EB510F04D1B9
:100AF000FFE701208DF80F008DE0FFE7FFE743F6E9
:100B00000801C4F20201086820F00300029A52684A
:100B100010430860FFF7A2FE0090FFE743F60800CD
:100B2000C4F20200006800F00C0002994968B0EBC2
:100B3000810F0ED0FFE7FFF791FE0099401A41F2B6
:100B40008931884204D3FFE703208DF80F0062E06B
:100B5000E4E7FFE7019843F60041C4F202010968A7
:100B600001F00701884212D2FFE7019943F60040E5
:100B7000C4F202000170006800F007000199884289
:100B800004D0FFE701208DF80F0044E0FFE7029852
:100B90000078400700280CD5FFE743F60801C4F2AF
:100BA0000201086820F4E050029AD26810430860FD
:100BB000FFE702980078000700280DD5FFE743F60D
:100BC0000801C4F20201086820F46040029A126928
:100BD00040EAC2000860FFE700F022F843F608018F
:100BE000C4F202010968C9B20A0942F2A631C0F68C
:100BF0000001895CC84040F20001C2F200010860B7
:100C000040F20800C2F200000068FFF757FE002023
:100C10008DF80F00FFE79DF80F0004B080BD0000C5
:100C200080B586B00020059004900390029043F6B2
:100C30000800C4F20200006800F00C0001460191B7
:100C400040B1FFE7019804280AD0FFE7019808287F
:100C50000CD04FE042F20040C0F2F40002904FE0AE
:100C600047F64000C0F27D10029049E043F60400D0
:100C7000C4F20200016801F03F01059100684002E2
:100C8000002813D5FFE743F60400C4F20200006811
:100C9000C0F3881047F64001C0F27D11A0FB0101AE
:100CA000059A0023FFF7E0FA049012E043F60400EF
:100CB000C4F202000068C0F3881042F20041C0F2A2
:100CC000F401A0FB0101059A0023FFF7CDFA04907F
:100CD000FFE743F60400C4F20200006800F440316C
:100CE000022000EBD130039004980399B0FBF1F09F
:100CF000029005E042F20040C0F2F4000290FFE7EB
:100D0000029806B080BD000080B586B004900498BB
:100D100020B9FFE701208DF8170050E30498007810
:100D2000C007002800F0A580FFE743F60800C4F2E2
:100D30000200006800F00C00042813D0FFE743F61F
:100D40000800C4F20200006800F00C0008281ED160
:100D5000FFE743F60400C4F20200006840020028E6
:100D600015D5FFE743F60000C4F20200006800F466
:100D700000310020B0EB514F08D0FFE704984068E5
:100D800020B9FFE701208DF8170018E370E0FFE7B6
:100D900004984068B0F5803F09D1FFE743F60001B1
:100DA000C4F20201086840F48030086020E0049832
:100DB0004068B0F5A02F0DD1FFE743F60001C4F263
:100DC0000201086840F480200860086840F4803020
:100DD00008600CE043F60001C4F20201086820F448
:100DE00080300860086820F480200860FFE7FFE793
:100DF000FFE704984068E8B1FFE7FFF72FFD039095
:100E0000FFE743F60000C4F20200006800F400317E
:100E10000020B0EB514F0CD1FFE7FFF71FFD039906
:100E2000401A652804D3FFE703208DF81700C6E2B7
:100E3000E7E71CE0FFF712FD0390FFE743F6000031
:100E4000C4F20200006800F400310020B0EB514F02
:100E50000CD0FFE7FFF702FD0399401A652804D381
:100E6000FFE703208DF81700A9E2E7E7FFE7FFE7B8
:100E7000FFE7049800788007002840F19680FFE79C
:100E800043F60800C4F20200006810F00C0F13D003
:100E9000FFE743F60800C4F20200006800F00C000F
:100EA00008282CD1FFE743F60400C4F202000068D2
:100EB0004002002823D4FFE743F60000C4F20200FA
:100EC000006800F002010020B0EB510F09D0FFE7ED
:100ED0000498C068012804D0FFE701208DF81700AE
:100EE0006DE243F60001C4F20201086820F0F80048
:100EF000049A126940EAC2000860FFE754E00498CF
:100F0000C06870B3FFE70021C4F2472101200860E8
:100F1000FFF7A4FC0390FFE743F60000C4F20200D1
:100F2000006800F002010020B0EB510F0CD1FFE788
:100F3000FFF794FC0399401A032804D3FFE703202A
:100F40008DF817003BE2E7E743F60001C4F2020127
:100F5000086820F0F800049A126940EAC2000860AC
:100F600021E00021C4F2472100200860FFF776FC51
:100F70000390FFE743F60000C4F20200006800F0AF
:100F800002010020B0EB510F0CD0FFE7FFF766FC29
:100F90000399401A032804D3FFE703208DF81700B4
:100FA0000DE2E7E7FFE7FFE7FFE7049800780007B7
:100FB00000284BD5FFE70498406918B3FFE740F6D7
:100FC0008061C4F2472101200860FFF747FC0390CD
:100FD000FFE743F67400C4F20200006800F002016B
:100FE0000020B0EB510F0CD1FFE7FFF737FC03995E
:100FF000401A032804D3FFE703208DF81700DEE131
:10100000E7E722E040F68061C4F247210020086053
:10101000FFF724FC0390FFE743F67400C4F20200DC
:10102000006800F002010020B0EB510F0CD0FFE788
:10103000FFF714FC0399401A032804D3FFE70320A9
:101040008DF81700BBE1E7E7FFE7FFE704980078BA
:101050004007002840F1CE80FFE700208DF8070010
:1010600043F64000C4F202000068C000002815D416
:10107000FFE7FFE70020009043F64000C4F20200C3
:10108000016841F080510160006800F080500090DC
:101090000098FFE701208DF80700FFE747F2000006
:1010A000C4F200000068C005002822D4FFE747F220
:1010B0000001C4F20001086840F480700860FFF786
:1010C000CDFB0390FFE747F20000C4F20000006888
:1010D000C00500280CD4FFE7FFF7C0FB0399401AB6
:1010E000032804D3FFE703208DF8170067E1EAE740
:1010F000FFE7FFE704988068012809D1FFE743F67E
:101100007001C4F20201086840F0010008601FE0AD
:101110000498806805280DD1FFE743F67001C4F2FA
:101120000201086840F004000860086840F001000F
:1011300008600CE043F67001C4F20201086820F078
:1011400001000860086820F004000860FFE7FFE77E
:10115000FFE704988068F8B1FFE7FFF77FFB039093
:10116000FFE743F67000C4F20200006800F00201DD
:101170000020B0EB510F0ED1FFE7FFF76FFB039993
:10118000401A41F28931884204D3FFE703208DF8E9
:10119000170014E1E5E71EE0FFF760FB0390FFE7AF
:1011A00043F67000C4F20200006800F00201002063
:1011B000B0EB510F0ED0FFE7FFF750FB0399401A39
:1011C00041F28931884204D3FFE703208DF81700EC
:1011D000F5E0E5E7FFE79DF80700012809D1FFE703
:1011E00043F64001C4F20201086820F08050086014
:1011F000FFE7FFE704988069002800F0DC80FFE744
:1012000043F60800C4F20200006800F00C00082851
:1012100000F08580FFE70498806902285CD1FFE731
:101220006021C4F2472100200860FFF717FB0390FC
:10123000FFE743F60000C4F20200006800F000710E
:101240000020B0EB516F0CD0FFE7FFF707FB0399CD
:10125000401A032804D3FFE703208DF81700AEE0FF
:10126000E7E70499C869D1F820C04B6A8A6A40EA66
:101270000C0040EA8310D2034FF6FF739A43A2F5A5
:1012800080321043C96A40EA016043F60401C4F2A7
:10129000020108606021C4F2472101200860FFF7C5
:1012A000DDFA0390FFE743F60000C4F20200006895
:1012B00000F000710020B0EB516F0CD1FFE7FFF799
:1012C000CDFA0399401A032804D3FFE703208DF8D1
:1012D000170074E0E7E721E06021C4F24721002015
:1012E0000860FFF7BBFA0390FFE743F60000C4F283
:1012F0000200006800F000710020B0EB516F0CD0CC
:10130000FFE7FFF7ABFA0399401A032804D3FFE77E
:1013100003208DF8170052E0E7E7FFE74AE0049862
:101320008069012804D1FFE701208DF8170046E00D
:1013300043F60400C4F20200006802900498806939
:10134000012831D0FFE7029800F480000499C969B0
:10135000884229D1FFE7029800F03F000499096A0A
:10136000884221D1FFE7029847F6C07108400499EE
:10137000496AB0EB811F17D1FFE7029800F44030B3
:101380000499896AC9034FF6FF729143A1F5803130
:10139000884209D1FFE7029800F070600499C96A99
:1013A000B0EB016F04D0FFE701208DF8170006E0D5
:1013B000FFE7FFE7FFE700208DF81700FFE79DF844
:1013C000170006B080BD000080B584B0029002987E
:1013D00020B9FFE701208DF80F0071E00298406A04
:1013E00060B9FFE702984068B0F5827F01D1FFE75E
:1013F00003E002990020C861FFE705E002990020A0
:10140000086102994861FFE702990020886202980A
:1014100090F8510040B9FFE70299002081F8500090
:10142000029800F051F8FFE70299022081F851007C
:1014300002980168086820F040000860029A019252
:1014400011685068D2F808C0D36800F482700CF4B8
:10145000044C604403F400631844136903F002036E
:101460001844536903F001031844936903F40073AB
:101470001844D36903F038031844136A03F0800357
:101480001843926A02F4005210430860029A508B8B
:1014900000F004001168526A02F010021044486023
:1014A00002980168C86920F40060C86102990020B0
:1014B0004865029A012182F851108DF80F00FFE76C
:1014C0009DF80F0004B080BD80B588B00790002063
:1014D000069005900490039002900798006843F2EC
:1014E0000001C4F20101884233D1FFE7FFE7002089
:1014F000019043F64400C4F20200016841F48051B7
:101500000160006800F4805001900198FFE7FFE758
:101510000020009043F63000C4F20200016841F060
:1015200001010160006800F0010000900098FFE7F1
:10153000A020029002200390002004900320059038
:10154000052006900020C4F2020002A9FEF792FFD7
:10155000FFE708B080BD000080B588B00690059117
:10156000ADF812200393FFF779F90290BDF812004D
:10157000ADF80600069890F85100012804D0FFE766
:1015800002208DF81F0034E1059820B1FFE7BDF877
:10159000120020B9FFE701208DF81F0029E1FFE7C5
:1015A000069890F85000012804D1FFE702208DF83A
:1015B0001F001EE10699012081F85000FFE7FFE7B8
:1015C0000699032081F85100069900204865059985
:1015D000069A1163BDF81210069A9186BDF8121092
:1015E000069AD18606998863069988870699C887DE
:1015F000069948640699086406988068B0F5004F1B
:101600000DD1FFE706980168086820F040000860E7
:1016100006980168086840F480400860FFE7069873
:101620000068006800F04000402807D0FFE70698F7
:101630000168086840F040000860FFE70698C0684D
:10164000B0F5006F51D1FFE70698406828B1FFE779
:10165000BDF8060001280ED1FFE706980168006B6F
:101660000088C8600699086B023008630699C88E26
:101670000138C886FFE7FFE70698C08EA0B3FFE7F2
:10168000069800688068800700280ED5FFE7069856
:101690000168006B0088C8600699086B0230086317
:1016A0000699C88E0138C8861DE0FFF7D7F8029961
:1016B000401A0399884204D3FFE70398013018B910
:1016C000FFE7039870B9FFE70699012081F8510000
:1016D000FFE70699002081F85000FFE703208DF80E
:1016E0001F0086E0FFE7C7E750E00698406828B192
:1016F000FFE7BDF8060001280ED1FFE70698016854
:10170000006B007808730699086B0130086306992E
:10171000C88E0138C886FFE7FFE70698C08EA0B3E1
:10172000FFE7069800688068800700280ED5FFE76D
:1017300006980168006B007808730699086B013001
:1017400008630699C88E0138C8861DE0FFF786F841
:101750000299401A0399884204D3FFE703980130A5
:1017600018B9FFE7039870B9FFE70699012081F8DF
:101770005100FFE70699002081F85000FFE70320A1
:101780008DF81F0035E0FFE7C7E7FFE706980399EC
:10179000029A00F093FB20B1FFE7069920204865EC
:1017A000FFE70698806870B9FFE7FFE70020009028
:1017B00006980068C06800900698006880680090ED
:1017C0000098FFE7FFE70699012081F85100FFE745
:1017D0000699002081F85000FFE70698406D20B17F
:1017E000FFE701208DF81F0003E000208DF81F00A7
:1017F000FFE79DF81F0008B080BD000080B582B0F3
:101800000190019800F058FC02B080BDFFE7FEE7B0
:1018100080B58CB000200B900A900990089007903A
:10182000FFE70020069043F63000C4F20200016892
:1018300041F080010160006800F080000690069889
:10184000FFE7FFE70020059043F63000C4F20200F6
:10185000016841F001010160006800F0010005909D
:101860000598FFE7FFE70020049043F63000C4F23C
:101870000200016841F002010160006800F002000E
:1018800004900498FFE740F20040C4F20200039085
:1018900044F23F01019100220292FEF7C7FF019A34
:1018A0000299039807920122089209910A9107A9C7
:1018B000FEF7E0FD0CB080BD80B582B040F2740050
:1018C000C2F20000019043F20001C4F20101016084
:1018D0004FF48271416000218160C1600222026187
:1018E000012242614FF4007282610822C2610162EA
:1018F000416281620A21C162FFF766FD18B1FFE70C
:10190000FEF792FDFFE702B080BD0000FFE7FEE7B3
:10191000FFE7FEE788B0079006910592079800F070
:10192000070004900498C0F10700052803D3FFE7DF
:101930000420019004E00498C0F107000190FFE743
:101940000198039004980430062803D8FFE700208C
:10195000009003E0049803380090FFE7009802909D
:1019600006980399012202FA01F101390840029B0D
:10197000984005999A40013A1140084308B07047D1
:1019800080B584B0ADF80E00ADF80C10ADF80A20AB
:10199000ADF8083020200021019100F047FA9DF8B1
:1019A0000E000121009100F041FA0199212000F080
:1019B0003DFA00999DF80C0000F038FA01991720C3
:1019C00000F034FA00999DF80E0000F02FFA01990A
:1019D000182000F02BFA00999DF80A0000F026FA72
:1019E0000199192000F022FA00999DF80C0000F0EE
:1019F0001DFA01991A2000F019FA00999DF80800C3
:101A000000F014FA0199222000F010FA04B080BD11
:101A100080B584B040F27000C2F200000078014648
:101A20000391042843D80399DFE801F0031D262F12
:101A3000380040F20040C4F202000190042100226C
:101A40000292FEF7F3FE0198029A0821FEF7EEFEDD
:101A50000198029A1021FEF7E9FE0198029A2021CE
:101A6000FEF7E4FE24E040F20040C4F2020004214C
:101A70000022FEF7DBFE1BE040F20040C4F2020051
:101A800008210022FEF7D2FE12E040F20040C4F22C
:101A9000020010210022FEF7C9FE09E040F20040DA
:101AA000C4F2020020210022FEF7C0FE00E0FFE7A2
:101AB00004B080BD80B584B040F27000C2F2000076
:101AC000007801460391042843D80399DFE801F028
:101AD000031D262F380040F20040C4F2020001909E
:101AE000042101220292FEF7A1FE0198029A082128
:101AF000FEF79CFE0198029A1021FEF797FE0198CE
:101B0000029A2021FEF792FEFFE740F20040C4F265
:101B1000020004210122FEF789FE1BE040F2004092
:101B2000C4F2020008210122FEF780FE12E040F21A
:101B30000040C4F2020010210122FEF777FE09E006
:101B400040F20040C4F2020020210122FEF76EFEA6
:101B500000E0FFE704B080BD80B584B084460698FD
:101B6000ADF80EC0ADF80C10ADF80A20ADF8083095
:101B7000ADF80600BDF80E00BDF80C10BDF80A2047
:101B8000013ABDF80830013B92B29BB2FFF7F8FE74
:101B9000BDF80C00ADF80400FFE7BDF80400BDF887
:101BA000081088421FDAFFE7BDF80E00ADF802000A
:101BB000FFE7BDF80200BDF80A1088420CDAFFE723
:101BC000BDF80600012100F005F9FFE7BDF80200AD
:101BD0000130ADF80200ECE7FFE7BDF8040001308A
:101BE000ADF80400D9E704B080BD000080B58AB02C
:101BF00040F20040C4F20200009002210191012253
:101C00000992FEF713FE14200290FEF711FC0098D3
:101C1000019900220892FEF709FE0298FEF708FCDF
:101C200000980199099AFEF701FE7820FEF700FC62
:101C300008990420059000F0F9F80999084600F089
:101C4000F5F80A200690FEF7F3FB0598089900F0D6
:101C5000EDF80898099900F0E9F80899052000F0D6
:101C6000E5F80898099900F0E1F80899062007902E
:101C700000F0DCF80898099900F0D8F80198089964
:101C800000F0D4F80999084600F0D0F8089903202C
:101C9000049000F0CBF80999302000F0C7F80899BB
:101CA000282000F0C3F809997F2000F0BFF80899B8
:101CB000202000F0BBF80898099900F0B7F80899BF
:101CC000212000F0B3F80898099900F0AFF80899BE
:101CD000292000F0ABF80898099900F0A7F80298BD
:101CE000089900F0A3F809993120039000F09EF8BC
:101CF0000899152000F09AF80898099900F096F8CC
:101D00000899132000F092F80898099900F08EF8CD
:101D10000899162000F08AF80999662000F086F8E4
:101D20000899102000F082F809992F2000F07EF821
:101D30000899112000F07AF80398099900F076F8D4
:101D40000899122000F072F809991E2000F06EF830
:101D50000899082000F06AF80498099900F066F8DC
:101D60000899092000F062F80598099900F05EF8DA
:101D70000698089900F05AF80999084600F056F8B4
:101D800008990B2000F052F809991A2000F04EF83B
:101D900008990C2000F04AF80999192000F046F83B
:101DA00008990D2000F042F80698099900F03EF8D5
:101DB0000899802000F03AF80898099900F036F860
:101DC0000798089900F032F80999084600F02EF8B3
:101DD0000AB080BD80B588B0ADF81E008DF81D102A
:101DE0009DF81F008DF81C00BDF81E008DF81B002B
:101DF00007A805900DF11B000490FFF709FE059957
:101E000040F27400C2F200000390012201924FF4EC
:101E10007A730293FFF7A0FB019A029B039804993F
:101E2000FFF79AFBFFF746FE08B080BD80B586B08D
:101E30008DF817008DF816100DF1170004909DF81D
:101E40001600C0B1FFE740F20040C4F202000122D8
:101E500003921146FEF7EAFCFFF7DAFD039A0499B4
:101E600040F27400C2F200004FF47A73FFF774FB83
:101E7000FFF720FE1DE040F20040C4F20200019096
:101E8000012102910022FEF7D1FCFFF7C1FD029A69
:101E9000049940F27400C2F200004FF47A73FFF725
:101EA0005BFBFFF707FE0198029A1146FEF7BEFCA6
:101EB000FFE706B080BD00007047000080B586B027
:101EC0000490039102920498039B02996A46116060
:101ED0000221012200F058F848B1FFE70499486D4B
:101EE00040F02000486503208DF8170048E040F2DC
:101EF0000000C2F2000000684AF6AB21CAF6AA212F
:101F0000A0FB011000094DF68361C4F21B31A0FB58
:101F10000110800C4FF47A71484301900498406896
:101F2000B0F5827F15D1FFE70498039B02996A46BA
:101F300011608021002200F027F848B1FFE70499E2
:101F4000486D40F02000486503208DF8170017E029
:101F500012E0FFE7019808B9FFE70CE001980138AB
:101F60000190FFE7049800688068C1B20020B0EBE0
:101F7000D11FEFD1FFE7FFE700208DF81700FFE743
:101F80009DF8170006B080BD80B58AB0DDF830C07E
:101F9000089007918DF81B20059305980190FEF796
:101FA0005DFC024601980C99891A08440390FEF7DB
:101FB00055FC0290039840F20001C2F2000109684A
:101FC000C1F3CB3148430490FFE70898006880686C
:101FD00007990840401AB0FA80F040099DF81B109C
:101FE00088425ED0FFE705980130002858D0FFE70F
:101FF000FEF734FC0299401A0399884204D2FFE7A5
:102000000398002842D1FFE708980168486820F04B
:10201000E000486008984068B0F5827F13D1FFE780
:1020200008988068B0F5004F06D0FFE708988068F0
:10203000B0F5806F07D1FFE708980168086820F0C5
:1020400040000860FFE70898806AB0F5005F0FD194
:10205000FFE7FFE708980168086820F4005008606F
:1020600008980168086840F400500860FFE7FFE73F
:102070000899012081F85100FFE70899002081F8B4
:102080005000FFE703208DF827000EE0049818B9F0
:10209000FFE700200390FFE7049801380490FFE772
:1020A00093E700208DF82700FFE79DF827000AB08E
:1020B00080BD00007047000080B582B0009000989D
:1020C0000138B0F1807F03D3FFE70120019019E0D0
:1020D000009801384EF21401CEF2000108604FF072
:1020E000FF300F2100F08AF84EF21801CEF2000105
:1020F000002008604EF21002CEF2000207211160AB
:102100000190FFE7019802B080BD000080B5FEF7A6
:10211000ABFB80BD80B594B008A83021FEF71CF958
:10212000002007900690059004900390FFE70020A0
:10213000029043F64000C4F20200016841F0805171
:102140000160006800F0805002900298FFE7FFE70E
:102150000020019047F20000C4F20000016841F441
:1021600080410160006800F4804001900198FFE721
:10217000012008904FF48030099002200E904FF417
:1021800080010F91192110914FF4A87111911290B3
:102190000420139008A8FEF7B7FD18B1FFE7FEF77B
:1021A00043F9FFE70F2003900220049000200590E0
:1021B0004FF4A05006904FF48050079003A80521DB
:1021C000FEF7FCFB18B1FFE7FEF72EF9FFE714B0AE
:1021D00080BD00004EF68851CEF20001086840F440
:1021E0007000086070470000FFE7FEE74EF60C50F5
:1021F000CEF200000068C0F30220704782B08DF874
:10220000070000919DF9070000280AD4FFE7009815
:1022100000019DF907104EF20042CEF200028854F0
:102220000BE0009800019DF8071001F00F014EF639
:102230001452CEF200028854FFE702B0704700004B
:1022400083B00290029800F0070000904EF60C5107
:10225000CEF200010868019001984FF6FF0210408D
:1022600001900198009A40EA02200022C0F2FA523E
:10227000104301900198086003B0704780B58AB0A0
:10228000002008900990FEF7FDFAFFF743FFFFF7E3
:10229000BFFAFFF711FB40F20040C4F202004FF416
:1022A00080410122FEF7C2FA089840F27001C2F2A2
:1022B00000010870FFF79AFCFFE764200190FEF729
:1022C000B7F840F27001C2F20001029101200870DB
:1022D00069464FF6FF70086000210591A022069222
:1022E000802307930846FFF737FC4FF4FA700390FA
:1022F000FEF79EF80599069A079BEC461F2004906E
:10230000CCF800000846FFF727FC0198FEF790F88C
:10231000DDF808C00599069A079B02208CF800009A
:10232000EC464FF47840CCF800000846FFF714FC68
:102330000398FEF77DF804980599069A079BEC46EA
:10234000CCF800000846FFF707FC0198FEF770F88C
:10235000DDF808C00599069A079B03208CF8000059
:10236000EC464FF4FC60CCF800000846FFF7F4FBA5
:102370000398FEF75DF804980599069A079BEC46CA
:10238000CCF800000846FFF7E7FB96E7F1EE100AED
:102390004FF6FF71C0F2C03120EA010040F04070FA
:1023A000E1EE100A7047000000000000000001028A
:1023B0000304060708090000D823000800000020D5
:1023C00010000000C4010008E823000810000020ED
:1023D000C0060000E00100080024F4000100000035
:0823E0001000000000000000E5
:040000050800018965
:00000001FF
