:020000040800F2
:10000000C806002029020008DF0F0008230F00089F
:10001000DD0F00081F040008911700080000000011
:10002000000000000000000000000000E1160008D1
:100030002104000800000000B9150008E3160008BC
:10004000430200084302000843020008430200087C
:10005000430200084302000843020008430200086C
:10006000430200084302000843020008430200085C
:10007000430200084302000843020008430200084C
:10008000430200084302000843020008430200083C
:10009000430200084302000843020008430200082C
:1000A000430200084302000843020008430200081C
:1000B000430200084302000843020008430200080C
:1000C00043020008430200084302000843020008FC
:1000D00043020008430200084302000843020008EC
:1000E00043020008430200084302000843020008DC
:1000F00043020008430200084302000843020008CC
:1001000043020008430200084302000843020008BB
:1001100043020008430200084302000843020008AB
:10012000430200084302000843020008430200089B
:10013000430200084302000843020008430200088B
:10014000430200084302000843020008430200087B
:10015000430200084302000843020008430200086B
:10016000430200084302000843020008430200085B
:100170004302000843020008430200080000000098
:10018000430200084302000800F002F800F03CF8C7
:100190000AA090E8000C82448344AAF10107DA45E2
:1001A00001D100F031F8AFF2090EBAE80F0013F0F8
:1001B000010F18BFFB1A43F001031847A4380000D1
:1001C000C4380000103A24BF78C878C1FAD8520762
:1001D00024BF30C830C144BF04680C6070470000C1
:1001E0000023002400250026103A28BF78C1FBD840
:1001F000520728BF30C148BF0B6070471FB501F0E0
:10020000F7FA1FBD10B510BD00F0CFF81146FFF78B
:10021000F5FF01F0CFFA00F0EDF803B4FFF7F2FFBD
:1002200003BC00F0F5F80000094880470948004782
:10023000FEE7FEE7FEE7FEE7FEE7FEE7FEE7FEE796
:10024000FEE7FEE704480549054A064B70470000F3
:100250008117000889010008C8000020C806002096
:10026000C8020020C802002053EA020C00F0698096
:100270002DE9F04B4FF00006002B1FBFB3FA83F5BA
:1002800003FA05F424FA05F65E4012BF1643B2FAEB
:1002900082F502FA05F4C5F120051EBF22FA05FC1D
:1002A00044EA0C04203556EA044C4FEA144418BFC3
:1002B000641C4FF000084FF00009904271EB030CF2
:1002C00039D3002919BFB1FA81F701FA07F6B0FA5C
:1002D00080F700FA07F6C7F120071EBF20FA07FCD7
:1002E00046EA0C062037B6FBF4FCA7EB0507103FE7
:1002F00007F01F0BCBF120060CFA0BFB2CFA06F6CD
:1003000044BFB3460026202FA4BF5E464FF0000B2B
:100310005BEA060C08BF4FF0010B19EB0B09ABFBB6
:10032000027C48EB0608C01B06FB02CC0BFB03CC8F
:1003300071EB0C01C1E70B46024641464846BDE859
:10034000F08B13B54FF000004FF00001AFF30080C9
:10035000BDE81C4070474FF0000200B513469446BC
:100360009646203922BFA0E80C50A0E80C50B1F10D
:100370002001BFF4F7AF090728BFA0E80C5048BF21
:100380000CC05DF804EB890028BF40F8042B08BFBF
:10039000704748BF20F8022B11F0804F18BF00F8BB
:1003A000012B7047704770477047754600F02CF876
:1003B000AE4605006946534620F00700854618B052
:1003C00020B5FFF73FFFBDE820404FF000064FF09B
:1003D00000074FF000084FF0000B21F00701AC467A
:1003E000ACE8C009ACE8C009ACE8C009ACE8C00999
:1003F0008D46704710B50446AFF300802046BDE837
:100400001040FFF70ABF0000004870476800002056
:1004100001491820ABBEFEE7260002007047FEE748
:10042000704772B6FEE7000070B5044600F00CF9A4
:100430000546601C02D004480078044400F004F92A
:10044000401BA042FAD370BD000000202DE9F84FF8
:10045000DFF8BCA10022012503264FF00F090AF1A5
:10046000040BAAF1040E00BF0B6805FA02F4234046
:10047000A34270D10F7907F00307012F01D0022F9B
:1004800016D187684FEA420806FA08FC27EA0C07EB
:10049000D1F80CC00CFA08FC4CEA070CC0F808C0F4
:1004A0004768A7430C79C4F3001494403C4344606C
:1004B0000C79E443A4070AD0C4684FEA420C06FA58
:1004C0000CF7BC438F6807FA0CF72743C7600C7919
:1004D00004F00304022C12D1D40800EB840CDCF8E5
:1004E00020405707FF0E09FA07F824EA0804D1F85C
:1004F000108008FA07F848EA0408CCF8208004685D
:100500004FEA420C06FA0CF7BC430F7907F00307D9
:1005100007FA0CF7274307604C6814F4403F70D08B
:100520003C4C276847F480472760246822F0030783
:1005300004F480440094384C07EB040CDCF80848C1
:1005400097074FEA177809FA08F7BC43334FB842C8
:1005500002D1002724E054E0314FB84201D10127F5
:100560001EE0304FB84201D1022719E02E4FB842A9
:1005700001D1032714E02D4FB84201D104270FE029
:100580002B4FB84201D105270AE02A4FB84201D1CA
:10059000062705E0284FB84201D1072700E00827C9
:1005A00007FA08F72743CCF80878DAF800405746EE
:1005B000D1F804C09C435FEACC2C00D51C433C60BE
:1005C000DBF800405F46D1F804C09C435FEA8C2C06
:1005D00000D51C433C60DEF800407746D1F804C0EB
:1005E0009C435FEA8C3C00D51C433C60084F083FAD
:1005F0003C68D1F804C09C435FEACC3C00D51C4366
:100600003C60521C102AFFF42FAFBDE8F88F0000A9
:10061000083C0140443802400030014000000240E4
:100620000004024000080240000C0240001002409A
:100630000014024000180240001C02400AB181610F
:1006400070470904FBE7000001488068704700001C
:1006500000000020024881680278114481607047E0
:10066000000000200B4810B5016841F400710160E2
:10067000016841F480610160016841F480710160AA
:10068000032000F061F80F2000F006F800F024F8D5
:10069000002010BD003C024070B50D4D04464FF4E3
:1006A0007A712878B1FBF0F00A490968B1FBF0F0E3
:1006B00000F023FC48B9102C07D200222146501E1E
:1006C00000F022F800206C6070BD012070BD0000B9
:1006D000000000200C0000200A4808B5016841F421
:1006E00080410160006800F4804000900548001FD0
:1006F000016841F080510160006800F08050009076
:1007000008BD000044380240F0B40E4B1B680C4694
:10071000C3F30223C3F10705042D00D90425191DD5
:10072000072901D2002300E0DB1E012606FA05F1AD
:10073000491E214099409E40761E16403143F0BC30
:1007400001F027B80CED00E0064900F00702086848
:100750004FF6FF03184040EA0220034A10430860A6
:10076000704700000CED00E00000FA052DE9F047AD
:100770000E46050065D0DFF81481D8F80000F7B206
:1007800000F00700B04207D288F80070D8F80000E7
:1007900000F00700B04254D128683D4C810712D5C3
:1007A000400703D5206840F4E05020602878000717
:1007B00003D5206840F4604020602068A96820F0DC
:1007C000F000084320602878C0072DD030496868C1
:1007D0000839012812D0022813D0032811D0096843
:1007E000890700292DDA216821F0030101432160E6
:1007F000FFF72AFF814641F2883A0EE00968890333
:10080000EFE709688901ECE7FFF71EFFA0EB09019C
:10081000514502D90320BDE8F0872068696800F0DF
:100820000C00B0EB810FEFD1D8F80010404601F07A
:100830000701B14207D90770006800F00700B04215
:1008400001D00120E7E72878400705D52068E9684E
:1008500020F4E050084320602878000706D520687F
:10086000296920F4604040EAC100206000F018F8D7
:100870002168084AC1F30311515CC8400649086069
:1008800006480068FFF708FF0020C4E7003C02406C
:1008900008380240FA1700080C000020040000206D
:1008A000154810B5006810F00C02144813D0144914
:1008B000042A0FD0082A0ED10F4C241F2268236867
:1008C00002F03F025B0207D52068C0F38810A0FB4E
:1008D000010106E0084610BD2168C1F38811A1FBA3
:1008E00000010023FFF7C0FC2168C1F30141491C4E
:1008F0004900B0FBF1F010BD083802400024F400BC
:1009000040787D012DE9F84F04006ED02078DFF8A3
:100910004C93C007A9F104054AD009F1040001680D
:10092000C1F38101012908D00068C0F381000228C9
:100930000AD1D9F80000400206D52868800337D5CF
:1009400060680028E1D033E06068B0F5803F10D0E7
:10095000B0F5A02F286810D020F4803028602868D7
:1009600020F4802028606068A8B1FFF76DFE06467D
:100970000DE0286840F48030F4E740F480202860DF
:10098000F7E700BFFFF760FE801B642873D8286874
:100990008003F7D50CE0FFF757FE064605E000BFE1
:1009A000FFF752FE801B6428F0D828688003F7D434
:1009B0002078DFF8AC8280074FF0000A3ED5A748C8
:1009C000001D016811F00C0F08D00068C0F3810011
:1009D00002280BD1D9F80000400207D4286880070C
:1009E00016D5E068012800D112E033E1E068B8B123
:1009F0000120C8F80000FFF727FE064605E000BF0B
:100A0000FFF722FE801B0228C0D828688007F7D590
:100A10002868216920F0F80040EAC10028600DE054
:100A2000C8F800A0FFF710FE064604E0FFF70CFE32
:100A3000801B02281FD828688007F7D42078000779
:100A400022D5864F87486169703771B101210160F5
:100A5000FFF7FAFD064604E0FFF7F6FD801B0228CB
:100A600009D838688007F7D50EE0C0F800A0FFF776
:100A7000EBFD064605E082E0FFF7E6FD801B02285D
:100A80007DD838688007F7D42078400768D5DFF82C
:100A9000CCB100270BF13C0BDBF80000C0000BD4FD
:100AA000DBF8001041F08051CBF80010DBF80000BB
:100AB000012700F0805000906B4E3068C00510D4C4
:100AC000306840F480703060FFF7BEFD009005E0B4
:100AD000FFF7BAFD0099401A022850D83068C005C7
:100AE000F6D55E4EA0686C3601280FD00528306818
:100AF00010D020F001003060306820F00400306039
:100B0000A068B8B1FFF7A0FD00900FE0306840F09A
:100B10000100F4E740F004003060F7E7FFF794FDD0
:100B20000099411A41F28830814266D830688007C6
:100B3000F4D50EE0FFF788FD009007E0FFF784FD95
:100B40000099411A41F28830814256D830688007B6
:100B5000F4D42FB1DBF8001021F08051CBF8001055
:100B6000A069C8B33D49091D0968C1F38101022983
:100B70004AD00228504607D0C8F8600000E03CE0A8
:100B8000FFF762FD04463BE04746C8F86000FFF708
:100B90005BFD064605E000BFFFF756FD801B0228FF
:100BA0002BD828688001F7D4D4E907010843A16A4B
:100BB0002E4A490802EB0141626A41EA8211084368
:100BC00094F82C1040EA0161C9F800100120386641
:100BD000FFF73AFD044606E03EE000BFFFF734FDB4
:100BE000001B022809D828688001F7D534E000BF2F
:100BF000FFF72AFD001B022802D90320BDE8F88F69
:100C000028688001F4D427E00128F7D0D9F8000043
:100C1000E26900F4800191421CD1226A00F03F0198
:100C2000914217D147F6C071626A0140B1EB821F51
:100C300010D1A26A4FF0FF3300F4403103EB5202AF
:100C4000B1EB024F06D194F82C1000F07060B0EBBD
:100C5000016F01D00120D1E70020CFE70438024026
:100C600000004742800E4742007000400000FFFF36
:100C700070B5040009D0606A002540B12561656146
:100C8000A56294F8510040B10CE0012070BD60688D
:100C9000B0F5827FF4D0E561F2E784F85050204649
:100CA00000F044F8022084F851002068016821F027
:100CB00040010160A088218900F4827001F40441A0
:100CC0000843A18901F400610843217C01F002017D
:100CD0000843217D01F001010843218B01F40071DB
:100CE0000843217F01F03801084394F8201001F0F7
:100CF00080010843218D01F40051084321680860F8
:100D0000A069042101EA104094F8241001F01001B8
:100D10000843216848602068C16921F40061C1610D
:100D20006565012084F85100002070BD10B586B0C3
:100D3000044614216846FFF70EFB134920688842D9
:100D400020D112480021026842F4805202600068FB
:100D500000F4805005900D481438026842F00102FA
:100D60000260006800F001000590A02000900220C1
:100D7000CDE9010103200390052004906946044851
:100D8000FFF764FB06B010BD00300140443802405C
:100D9000000002402DE9F84F984616468A46044660
:100DA000FFF752FC814694F8510001281ED1BAF198
:100DB000000F73D0002E71D094F85000012815D088
:100DC000012784F85070032084F8510000256565E0
:100DD000C4F830A0A686E686A563A587E587656486
:100DE0002564A068B0F5004F03D00CE00220BDE8F8
:100DF000F88F2068016821F04001016020680168D7
:100E000041F48041016020680168490603D401680B
:100E100041F040010160E068B0F5006F606803D008
:100E200048B3012E27D047E008B1012E1FD1206B17
:100E300021680088C86006E020688168890709D5B4
:100E4000216B0988C160206B801C2063E08E401EEE
:100E5000E0860CE0FFF7F8FBA0EB0901414503D366
:100E6000B8F1FF3F03D035E0B8F1000F32D0E08E8B
:100E70000028E1D123E0206B21680078087306E0A8
:100E80002068816889070AD5216B09780173206B76
:100E9000401C2063E08E401EE0860DE02BE0FFF753
:100EA000D3FBA0EB0901414503D3B8F1FF3F03D0C9
:100EB00010E0B8F1000F0DD0E08E0028E0D14A46D6
:100EC0004146204600F07AFB08B120206065A0680A
:100ED00030B109E084F8517084F85050032086E75F
:100EE0002068C1688068009084F8517004F8505FF1
:100EF00060680028F3D0012079E710B5401EB0F1FA
:100F0000807F01D3012010BD4FF0E02460610F21EC
:100F1000601700F03EFC0020A06107202061002047
:100F200010BDFEE770B586B014216846FFF713FACE
:100F300016480024016841F080010160016801F059
:100F400080010591016841F001010160016801F033
:100F500001010591016841F00201016000680C4E39
:100F600000F0020044F207050590002229463046B1
:100F7000FFF764FB01200095CDE901046946304686
:100F80000394FFF763FA06B070BD000030380240EA
:100F900000040240104810B50E4901604FF4827100
:100FA0004160002102228160C0E9031201224261F6
:100FB000520282610822C0E90721416281620A214E
:100FC000C162FFF755FE002803D0BDE81040FFF7CF
:100FD00028BA10BD0030014010000020FEE7FEE7F7
:100FE0002DE9F0410C4605461E46174600212020FB
:100FF00000F0AAFAE8B2012100F0A6FA00212120AF
:1010000000F0A2FAE0B2012100F09EFA00211720C0
:1010100000F09AFAE8B2012100F096FA00211820B7
:1010200000F092FAF8B2012100F08EFA00211920A6
:1010300000F08AFAE0B2012100F086FA00211A20BD
:1010400000F082FAF0B2012100F07EFABDE8F04132
:101050000021222000F078BA10B514460B46024653
:10106000FFF7BEFF2046BDE81040012100F044BA62
:101070002DE9F04780461F46581E83B21646501E83
:1010800082B20C464046DDF82090FFF7A9FF0BE046
:10109000454605E00121484600F02EFA6D1CADB230
:1010A000B542F7D3641CA4B2BC42F1D3BDE8F087CB
:1010B00010B5734C012202212046FFF7BFFA14201D
:1010C000FFF7B2F9002202212046FFF7B7FA1420F9
:1010D000FFF7AAF9012202212046FFF7AFFA782094
:1010E000FFF7A2F90021042000F02EFA01210846A2
:1010F00000F02AFA0A20FFF797F90021042000F0F7
:1011000023FA0121002000F01FFA0021052000F041
:101110001BFA0121002000F017FA0021062000F040
:1011200013FA0121002000F00FFA0021022000F044
:101130000BFA0121084600F007FA0021032000F015
:1011400003FA0121302000F0FFF90021282000F0EF
:10115000FBF901217F2000F0F7F90021202000F0A9
:10116000F3F90121002000F0EFF90021212000F027
:10117000EBF90121002000F0E7F90021292000F01F
:10118000E3F90121002000F0DFF90021142000F034
:10119000DBF90121312000F0D7F90021152000F002
:1011A000D3F90121002000F0CFF90021132000F035
:1011B000CBF90121002000F0C7F90021162000F032
:1011C000C3F90121662000F0BFF90021102000F0D2
:1011D000BBF901212F2000F0B7F90021112000F008
:1011E000B3F90121312000F0AFF90021122000F005
:1011F000ABF901211E2000F0A7F90021082000F022
:10120000A3F90121032000F09FF90021092000F03B
:101210009BF90121042000F097F900210A2000F039
:1012200093F90121084600F08FF900210B2000F00E
:101230008BF901211A2000F087F900210C2000F021
:1012400083F90121192000F07FF900210D2000F021
:101250007BF901210A2000F077F90021802000F0BD
:1012600073F90121002000F06FF90021062000F041
:101270006BF90121BDE81040084600F065B9000097
:10128000000402400EB500252C464FF0010802274D
:10129000A9468023A022294628460095FFF7E8FEAC
:1012A0004FF6FF7A4FF0100B15E000BF05F110006C
:1012B00083B2A2B2A9B2A01ECDF8009009E0012C21
:1012C00009D405F1100083B2A2B2A9B2601ECDF814
:1012D000009080B207E005F1100083B2A2B2A9B27B
:1012E0000020CDF80090FFF7C3FE681E002809DD3E
:1012F00004F118018AB281B2ABB2A0B2CDF800906D
:10130000FFF7B6FE04F11A00A02802DB401EA02859
:101310000BDA05F1100182B28BB204F11800A9B208
:1013200080B2CDF80090FFF7A3FE05F111008028F0
:101330000BDA83B204F1180082B205F1100081B219
:10134000A0B2CDF80090FFF793FECDE9009BA9B2C3
:10135000A0B2534627A2CDF8089000F0AFF83C4465
:101360004544882C05DD761CB6B288246FF0010751
:1013700005E0002C03DC761C0024B6B20227702D99
:1013800005DD761CB6B270254FF0FF3005E0002D6C
:1013900004DC761C0025B6B2012080460A20B6FB8C
:1013A000F0F100FB11600A280BD2DFE800F005081D
:1013B00017201114171A1D204FF6FF7000E01F2090
:1013C00082463220FFF730F8022C3FF578AF6DE708
:1013D00040F2FF70F4E74FF47840F1E74FF61F005A
:1013E000EEE74FF4FC60EBE747F6FF70E8E74FF6F7
:1013F000E070E5E7445644002DE9FF4F81B0044614
:10140000DDE90F7B4FEA570800904FEAD80000FB58
:1014100007FA203AD0B20390029802993844401E4D
:1014200083B204EB0800401E82B22046FFF7D8FDCD
:10143000002639E0102F24D0202F37D11D490398E2
:1014400001EB80105FF0000510F80690BBF1000F73
:101450004FF0010000FA05F000EA090016D020B1B3
:101460002046049A0299FFF7F7FD641C0098A4B285
:10147000211A414512D10298009C401C80B2029072
:1014800010E00D49039801EB0010DBE74FF001017C
:1014900008B1049800E00E9800F02EF86D1CEDB233
:1014A000082DD3D3761CB6B25645C3D305B0BDE8DC
:1014B000F08F0000FA1D00080A1800082DE9FE4F01
:1014C0009946DDE90D6714468A460546DDF8308009
:1014D0000CE0CDF800804B4651462846CDE9016727
:1014E000FFF78AFF05EB560085B2641C2278002ABC
:1014F000EFD1BDE8FE8F00002DE9FC41010A104E3E
:101500008DF800108DF804006D4601AC0022042116
:101510003046FFF793F84FF47A773B46012229468D
:101520000848FFF737FC3B46012221460548FFF7F4
:1015300031FC012204213046FFF780F8BDE8FC8130
:10154000000402401000002073B5194C6D464FF4A2
:101550007A7691B1012211462046FFF76FF80022FA
:1015600004212046FFF76AF8334601222946114834
:10157000FFF710FC0122042116E000220121204681
:10158000FFF75CF8002204212046FFF757F83346A6
:10159000012229460748FFF7FDFB012204212046CE
:1015A000FFF74CF8012211462046FFF747F87CBDB3
:1015B000000402401000002070470000F8B51546F6
:1015C0000E460B46009204460122022100F02CF840
:1015D000A0B9134813490068B0FBF1F04FF47A71D9
:1015E000484300906068B0F5827F0DD133460022F9
:1015F00080212046009500F017F870B1606D40F032
:10160000200060650320F8BD009830B1401E0090B6
:1016100020688068C0430006F6D50020F8BD0000B1
:101620000C00002000366E012DE9F8431E4691465D
:1016300088460446089DFFF707F8401B351AFFF758
:1016400003F8074625480068C0F3CB30684338E00C
:10165000701C37D0FEF7F8FFC01BA84203D215B1AB
:10166000009860B32CE02068416821F0E0014160FF
:101670006068B0F5827F0BD1A068B0F5004F02D052
:10168000B0F5806F04D12068016821F0400101604D
:10169000A06AB0F5005F09D12068016821F400510B
:1016A00001602068016841F400510160012084F864
:1016B0005100002084F850000320BDE8F883002585
:1016C000401E00902068816838EA010004D00021A3
:1016D0004945BDD10020F0E70121F9E70C000020C9
:1016E0007047FEF7B7BF000030B593B030216846B1
:1016F000FEF731FE14210CA8FEF72DFE1E48002532
:10170000016841F080510160006800F08050119044
:101710001A48016841F4804101600068022400F425
:101720008040119001200090000401908001CDE9DB
:101730000640192008904FF4A870CDE90904042050
:101740000B906846FFF7DEF808B172B6FEE70CA909
:101750000F2081E831004FF4A0500F904FF48050DB
:10176000109005210CA8FFF701F8002801D072B6EF
:10177000FEE713B030BD000040380240007000406A
:101780000248016841F470010160704788ED00E093
:10179000FEE70907090E002804DB00F1E02080F8CD
:1017A0000014704700F00F0000F1E02080F8141DD5
:1017B0007047000008B5FEF755FFFFF795FFFFF7EC
:1017C000B1FBFFF7E7FB012291030848FEF736FF64
:1017D000FFF76EFC4FF6FF70002100908023A022DF
:1017E0000846FFF745FCFFF74DFDFEE70004024009
:1017F0004FF04070E1EE100A70470000000000005A
:1018000000000102030406070809000000000000B0
:1018100000000000000000000000000000080808B0
:101820000808080800001818000000486C2412007E
:10183000000000000000000000000000002424243C
:101840007F1212127F12121200000000081C2A2AB6
:101850000A0C1828282A2A1C08080000002225152E
:1018600015152A585454542200000000000C12127E
:10187000120A76252911916E000000060604030065
:1018800000000000000000000000004020101008D0
:10189000080808080810102040000002040808107A
:1018A00010101010100808040200000000000808C2
:1018B0006B1C1C6B080800000000000000000808FA
:1018C00008087F0808080800000000000000000069
:1018D00000000000000006060403000000000000F5
:1018E0000000FE00000000000000000000000000FA
:1018F00000000000000006060000000080404020BC
:1019000020101008080404020200000000182442FD
:1019100042424242424224180000000000080E08E1
:10192000080808080808083E00000000003C424281
:10193000422020100804427E00000000003C424289
:10194000201820404042221C0000000000203028C7
:10195000242422227E20207800000000007E020243
:10196000021A26404042221C0000000000382402D7
:10197000021A26424242241800000000007E222261
:10198000101008080808080800000000003C424247
:10199000422418244242423C000000000018244225
:1019A000424264584040241C000000000000000037
:1019B00018180000000018180000000000000000C7
:1019C000000800000000000808040000004020108B
:1019D000080402040810204000000000000000007D
:1019E0007F0000007F0000000000000000020408EB
:1019F000102040201008040200000000003C424279
:101A0000464020101000181800000000001C225A48
:101A1000555555552D42221C00000000000808189D
:101A20001414243C224242E700000000001F22223E
:101A3000221E22424242221F00000000007C42423D
:101A4000010101010142221C00000000001F22428E
:101A5000424242424242221F00000000003F421226
:101A6000121E12120242423F00000000003F4212CA
:101A7000121E12120202020700000000003C222285
:101A8000010101712122221C0000000000E74242F6
:101A900042427E42424242E700000000003E080807
:101AA000080808080808083E00000000007C101024
:101AB0001010101010101010110F000000772212DB
:101AC0000A0E0A121222227700000000000702020A
:101AD000020202020202427F000000000077363656
:101AE00036362A2A2A2A2A6B0000000000E34646DE
:101AF0004A4A52525262624700000000001C2241D2
:101B0000414141414141221C00000000003F42424E
:101B100042423E020202020700000000001C224175
:101B2000414141414D53321C60000000003F4242A0
:101B3000423E1212222242C700000000007C4242B4
:101B4000020418204042423E00000000007F490885
:101B5000080808080808081C0000000000E74242C6
:101B6000424242424242423C0000000000E7424200
:101B7000222424141418080800000000006B4949AE
:101B800049495555362222220000000000E7422430
:101B900024181818242442E70000000000772222AD
:101BA000141408080808081C00000000007E21200A
:101BB000101008040442423F00000078080808089A
:101BC0000808080808080808780000000202040451
:101BD00008080810102020204040001E101010108F
:101BE00010101010101010101E00003844000000DB
:101BF00000000000000000000000000000000000E5
:101C0000000000000000000000FF000608000000C7
:101C100000000000000000000000000000000000C4
:101C2000003C4278444242FC0000000000030202F3
:101C3000021A26424242261A00000000000000005C
:101C400000384402020244380000000000604040B6
:101C500040784442424264D8000000000000000086
:101C6000003C427E0202423C0000000000F0880876
:101C7000087E08080808083E000000000000000078
:101C8000007C22221C023C42423C00000003020273
:101C9000023A4642424242E700000000000C0C00BB
:101CA000000E08080808083E000000000030300060
:101CB0000038202020202020221E000000030202E5
:101CC0000272120A1612227700000000000E0808A5
:101CD000080808080808083E00000000000000008E
:101CE000007F9292929292B70000000000000000E4
:101CF000003B4642424242E7000000000000000074
:101D0000003C42424242423C000000000000000011
:101D1000001B26424242221E020700000000000073
:101D2000007844424242447840E000000000000055
:101D300000774C040404041F0000000000000000B1
:101D4000007C42023C40423E0000000000000008CF
:101D5000083E0808080808300000000000000000E5
:101D600000634242424262DC0000000000000000CA
:101D700000E74224241408080000000000000000CE
:101D800000EB4949555522220000000000000000E8
:101D9000007624181818246E0000000000000000CF
:101DA00000E742242414180808070000000000007F
:101DB000007E22100808447E000000C02020202061
:101DC0002010202020202020C00010101010101003
:101DD000101010101010101010100006080808083D
:101DE000081008080808080806000C32C2000000A5
:101DF00000000000000000000000000000000000E3
:101E000000000000000000000000000000000000D2
:101E100000000000000000000000000000000000C2
:101E200000000000000000000000000000000000B2
:101E300000000000000000000000000000000000A2
:101E400000000000C001C001C001C001C001C0010C
:101E5000C001800080008000800080008000800041
:101E600000000000000000008001C003C0038001EA
:101E70000000000000000000000000000000000062
:101E8000E01CE01CF01E700E3807180308018400E7
:101E90000000000000000000000000000000000042
:101EA0000000000000000000000000000000000032
:101EB0000000000000000000000000000000000022
:101EC0000000000000002010201020102010201022
:101ED000FE7FFE7F10081008100810081008100878
:101EE0001008FE7FFE7F08040804080408040804A4
:101EF00000000000000000000000000000000000E2
:101F0000000000010001C0076019103118311839B4
:101F1000183938017001E001C0038007000F001D6F
:101F2000003900311C311C310C310C11180DE00747
:101F3000000100010001000000000000000000009E
:101F40000000000000001C1036186308630C6304D6
:101F50006304630263026301361D9C378022806341
:101F60004063406320632063306310221836081CEE
:101F70000000000000000000000000000000000061
:101F8000000000000000F00098018C018C018C0121
:101F90008C018C00CC007800183E1C0836083208F2
:101FA00063046304C304C303834306438E26781C7F
:101FB0000000000000000000000000000000000021
:101FC0001C003C003C003000300010000C000600FB
:101FD0000000000000000000000000000000000001
:101FE00000000000000000000000000000000000F1
:101FF00000000000000000000000000000000000E1
:102000000040002000100008000C0004000600033F
:1020100000030003800180018001800180018001B4
:102020008001800100030003000300060006000C8D
:102030000008001000200040000000000000000028
:102040000200040008001000300020006000C00002
:10205000C000C000800180018001800180018001FA
:1020600080018001C000C000C0006000600030003E
:102070001000080004000200000000000000000042
:102080000000000000000000000000018003800349
:1020900000011C713C79783DC0070001C007783D04
:1020A0003C791C7100018003800380010000000066
:1020B0000000000000000000000000000000000020
:1020C000000000000000000000000000000100010E
:1020D00000010001000100010001FC7F000100017E
:1020E00000010001000100010001000000000000EB
:1020F00000000000000000000000000000000000E0
:1021000000000000000000000000000000000000CF
:1021100000000000000000000000000000000000BF
:10212000000000000000000000001C003C003C001B
:102130003000300010000C0006000000000000001D
:10214000000000000000000000000000000000008F
:1021500000000000000000000000FE7F0000000002
:10216000000000000000000000000000000000006F
:10217000000000000000000000000000000000005F
:10218000000000000000000000000000000000004F
:10219000000000000000000000000000000000003F
:1021A000000000000000000018003C003C00180087
:1021B000000000000000000000000000000000001F
:1021C0000040006000200030001000180008000CE3
:1021D0000004000600020003000180018000C0002E
:1021E00040006000200030001000180008000C00C3
:1021F00004000600020000000000000000000000D3
:10220000000000000000C007600C301818301830C3
:1022100018200C600C600C600C600C600C600C6092
:102220000C600C601820183018303018600CC00793
:10223000000000000000000000000000000000009E
:1022400000000000000000018001F8018001800111
:102250008001800180018001800180018001800176
:10226000800180018001800180018001C003F81F8E
:10227000000000000000000000000000000000005E
:10228000000000000000E007101C081804300430B3
:102290000C300C300030001800080004000200016F
:1022A000800040002020102008200430FC1FFC1F6C
:1022B000000000000000000000000000000000001E
:1022C000000000000000E003180E0C0C0C180C18A5
:1022D0000C180018000C0006C003000E00180010B7
:1022E000003000300C300C300C100C18180CE003CF
:1022F00000000000000000000000000000000000DE
:10230000000000000000000C000E000E000F800E08
:10231000800E400E600E200E100E100E080E040EE1
:10232000040EFE7F000E000E000E000E000E000ECA
:10233000C07F00000000000000000000000000005E
:10234000000000000000F03FF03F100010001000FF
:1023500008000800C807280C1818081000300030C2
:10236000003000300C300C3004180418080CF00356
:10237000000000000000000000000000000000005D
:10238000000000000000800FC01020301030180046
:10239000180008000C008C0F6C183C301C600C609E
:1023A0000C600C600C601860182030306018C0079A
:1023B000000000000000000000000000000000001D
:1023C000000000000000F83FF83F1C100C08040853
:1023D000040400040002000200010001000180006A
:1023E00080008000C000C000C000C000C000C0006D
:1023F00000000000000000000000000000000000DD
:10240000000000000000E007300C18180C300C3001
:102410000C301C3038187008E007B007180E0C1C80
:10242000063806300630063006300C18180CE0036B
:10243000000000000000000000000000000000009C
:10244000000000000000E00318040C080C1806103F
:10245000063006300630063006380C3C1836F031AF
:1024600000300018001800180C0C0C060C03F001CA
:10247000000000000000000000000000000000005C
:10248000000000000000000000000000000000004C
:10249000000000008001C003C003800100000000B4
:1024A00000000000000000008001C003C0038001A4
:1024B000000000000000000000000000000000001C
:1024C000000000000000000000000000000000000C
:1024D00000000000C000C00000000000000000007C
:1024E000000000000000000000000000C000C0006C
:1024F000800080004000400000000000000000005C
:102500000000000000200010000800040006000386
:102510008001C0006000300018000C00180030007E
:102520006000C000800100030006000400080010E5
:10253000002000000000000000000000000000007B
:10254000000000000000000000000000000000008B
:1025500000000000FE7F00000000000000000000FE
:10256000FE7F0000000000000000000000000000EE
:10257000000000000000000000000000000000005B
:102580000000000004000800100020006000C000EF
:10259000800100030006000C001800300018000C39
:1025A000000600038001C000600020001000080049
:1025B0000400000000000000000000000000000017
:1025C00000000000C0073018083008600C601C6074
:1025D0001C601C600030001C0006000180008000B0
:1025E00080008000000000008001C003C003800163
:1025F00000000000000000000000000000000000DB
:10260000000000000000C0076018103018200C2FD8
:102610008C4D864CC64CC64C664C66446644662659
:1026200066266615CC1C0C40082018303018C007F0
:10263000000000000000000000000000000000009A
:10264000000000000001C001C001C00140016003A2
:102650002003200320033006100610061006F80F92
:10266000080C080C080C0C0C0418041806181F7C25
:10267000000000000000000000000000000000005A
:10268000000000000000FE07181C18381830183031
:10269000183018301818180CF807181818301820A7
:1026A0001860186018601860186018301818FE0F4D
:1026B000000000000000000000000000000000001A
:1026C000000000000000C0276038103018200C40C7
:1026D0000C40040006000600060006000600060086
:1026E000060006000C400C400C2018303018C007C3
:1026F00000000000000000000000000000000000DA
:10270000000000000000FE03180E181818301830E2
:102710001830186018601860186018601860186029
:10272000186018601830183018101818180EFE03AA
:102730000000000000000000000000000000000099
:10274000000000000000FE3F1830182018601840FC
:10275000180018081808180CF80F180C1808180892
:102760001800180018001840184018201830FE3FB4
:102770000000000000000000000000000000000059
:10278000000000000000FE7F1870184018C018807C
:102790001800181018101818F81F1818181018100A
:1027A00018001800180018001800180018007E0003
:1027B0000000000000000000000000000000000019
:1027C000000000000000C013701C101018100C2036
:1027D0000C2004000600060006000600060006FCA9
:1027E000063006300C300C30183018303008C00776
:1027F00000000000000000000000000000000000D9
:102800000000000000003F7E0C180C180C180C187B
:102810000C180C180C180C180C18FC1F0C180C18A1
:102820000C180C180C180C180C180C180C183F7EEF
:102830000000000000000000000000000000000098
:10284000000000000000F81F80018001800180016D
:102850008001800180018001800180018001800170
:102860008001800180018001800180018001F81FCA
:102870000000000000000000000000000000000058
:10288000000000000000E07F0006000600060006D1
:102890000006000600060006000600060006000608
:1028A00000060006000600060006000600060006F8
:1028B00000060E060E038E01FC0000000000000062
:1028C0000000000000007E7C181818081804180684
:1028D0001802180198019801D801B80338031807A5
:1028E0001806180E180C181C1818183018307EFC12
:1028F00000000000000000000000000000000000D8
:102900000000000000007E001800180018001800E9
:1029100018001800180018001800180018001800F7
:102920001800180018001840184018201830FE3FF2
:102930000000000000000000000000000000000097
:102940000000000000001FF81C381C381C381C3C1C
:10295000343434343434343674326432643264326D
:102960006431C431C431C431C430C43084309FFCBC
:102970000000000000000000000000000000000057
:102980000000000000001F7C1C103C1034103410AC
:1029900074106410E410C410C4118411841304135F
:1029A00004170416041E041C041C041C04181F181D
:1029B0000000000000000000000000000000000017
:1029C000000000000000C003300C181808100C3084
:1029D0000C300660066006600660066006600660F1
:1029E000066006600C200C3008101818300CC0036C
:1029F00000000000000000000000000000000000D7
:102A0000000000000000FE0F181818301860186051
:102A100018601860186018301818F80F180018009F
:102A200018001800180018001800180018007E0080
:102A30000000000000000000000000000000000096
:102A4000000000000000C003300C18180C100C30FF
:102A50000C20066006600660066006600660066080
:102A600006600660E4612C331C321816300EC00775
:102A7000004C007C00380000000000000000000056
:102A8000000000000000FE07181C1838183018302D
:102A9000183018301818180CF8079803180318077E
:102AA00018061806180E180C180C181C18187E7822
:102AB0000000000000000000000000000000000016
:102AC000000000000000E027303818300C200C20F7
:102AD0000C000C0018007800E003800F001E003886
:102AE0000070006004600460086018303818C80F77
:102AF00000000000000000000000000000000000D6
:102B0000000000000000FC3F8C2184618241824172
:102B100080018001800180018001800180018001AD
:102B20008001800180018001800180018001E00737
:102B30000000000000000000000000000000000095
:102B40000000000000003F7C0C100C100C100C105A
:102B50000C100C100C100C100C100C100C100C1095
:102B60000C100C100C100C100C1008083804E003AA
:102B70000000000000000000000000000000000055
:102B80000000000000003EF8182018201820301027
:102B9000301030103010600860086008E00CC0048D
:102BA000C004C0048003800380038003000100018F
:102BB0000000000000000000000000000000000015
:102BC000000000000000DFF38661862186218C2151
:102BD0000C218C238C138C138C134C135812581605
:102BE000580E380E380E380E300C10041004100435
:102BF00000000000000000000000000000000000D5
:102C00000000000000007E3E180838083004300440
:102C100070026002E001C001C00180018003400336
:102C2000400720062006100C100C081808183E7CDF
:102C30000000000000000000000000000000000094
:102C40000000000000007E7C1C10181018083008DE
:102C5000300C700460046002C002C002C001800138
:102C60008001800180018001800180018001E007F6
:102C70000000000000000000000000000000000054
:102C8000000000000000F83F18180818040C040E9B
:102C900000060007000380038001C001C000E000BF
:102CA000600070003000382018201C100C18FE1F27
:102CB0000000000000000000000000000000000014
:102CC000C03F400040004000400040004000400045
:102CD00040004000400040004000400040004000F4
:102CE00040004000400040004000400040004000E4
:102CF00040004000C03F0000000000000000000055
:102D0000000000000800180018001000300020002B
:102D1000600060004000C000800080018001000170
:102D200000030002000600060004000C0008001862
:102D3000001800100030002000000000000000001B
:102D4000FC03000200020002000200020002000276
:102D50000002000200020002000200020002000263
:102D60000002000200020002000200020002000253
:102D700000020002FC030000000000000000000050
:102D80008007C006200810100000000000000000AE
:102D90000000000000000000000000000000000033
:102DA0000000000000000000000000000000000023
:102DB0000000000000000000000000000000000013
:102DC0000000000000000000000000000000000003
:102DD00000000000000000000000000000000000F3
:102DE00000000000000000000000000000000000E3
:102DF0000000000000000000FFFF000000000000D5
:102E00007800C00000010000000000000000000089
:102E100000000000000000000000000000000000B2
:102E200000000000000000000000000000000000A2
:102E30000000000000000000000000000000000092
:102E40000000000000000000000000000000000082
:102E500000000000F00318060C0C0C0C000C800F96
:102E6000700C1C0C0C0C060C060C064C0C4FF838A5
:102E70000000000000000000000000000000000052
:102E80000000000010001E001800180018001800B4
:102E900018001800180FD8183830386018601860FB
:102EA0001860186018601860182038307818C80743
:102EB0000000000000000000000000000000000012
:102EC0000000000000000000000000000000000002
:102ED00000000000C007700C181818180C180C001F
:102EE0000C000C000C000C20182018103008C00733
:102EF00000000000000000000000000000000000D2
:102F0000000000000010001E001800180018001833
:102F100000180018E01B301C181818180C180C1892
:102F20000C180C180C180C180818181C307AE0092A
:102F30000000000000000000000000000000000091
:102F40000000000000000000000000000000000081
:102F500000000000C007300C181808100C300C30AE
:102F6000FC3F0C000C000C00182018107018C00753
:102F70000000000000000000000000000000000051
:102F8000000000000000003E80C380C0C0C0C00040
:102F9000C000C000FC1FC000C000C000C000C000D6
:102FA000C000C000C000C000C000C000C000F80FDA
:102FB0000000000000000000000000000000000011
:102FC0000000000000000000000000000000000001
:102FD00000000000C077306C101818181818181866
:102FE0001018300CF00718001800F00FF03F0870B0
:102FF0000C600C600C603838E00F0000000000002E
:103000000000000010001E00180018001800180032
:1030100018001800980FD8183830183018301830A9
:1030200018301830183018301830183018307EFC2E
:103030000000000000000000000000000000000090
:1030400000000000000080038003800300000000F7
:1030500000000001F80180018001800180018001F1
:103060008001800180018001800180018001F81FC2
:103070000000000000000000000000000000000050
:103080000000000000000038003800380000000098
:1030900000000010801F0018001800180018001809
:1030A0000018001800180018001800180018001860
:1030B00000180018180C1806F003000000000000AB
:1030C0000000000010001E00180018001800180072
:1030D00018001800183E180C18061803180198015B
:1030E000D801380318071806180C181C18187E7C0D
:1030F00000000000000000000000000000000000D0
:10310000000000000001F8018001800180018001C1
:1031100080018001800180018001800180018001A7
:103120008001800180018001800180018001F81F01
:10313000000000000000000000000000000000008F
:10314000000000000000000000000000000000007F
:1031500000000800EE1C9C338C318C318C318C319A
:103160008C318C318C318C318C318C318C31DE7BDB
:10317000000000000000000000000000000000004F
:10318000000000000000000000000000000000003F
:10319000000010001E0FD8183830183018301830C2
:1031A00018301830183018301830183018307EFCAD
:1031B000000000000000000000000000000000000F
:1031C00000000000000000000000000000000000FF
:1031D00000000000C007701C103018300C600C603C
:1031E0000C600C600C600C60183018303018C00790
:1031F00000000000000000000000000000000000CF
:1032000000000000000000000000000000000000BE
:10321000000010009E0F58183830182018601860F1
:1032200018601860186018601830383078189807DF
:1032300018001800180018007E00000000000000B0
:10324000000000000000000000000000000000007E
:1032500000000000C023303C183818300C300C300F
:103260000C300C300C300C3008301838303CE03367
:10327000003000300030003000FC00000000000092
:10328000000000000000000000000000000000003E
:10329000000060007E3C60666061E000E00060006D
:1032A0006000600060006000600060006000FE0779
:1032B000000000000000000000000000000000000E
:1032C00000000000000000000000000000000000FE
:1032D00000000000E0273038183018201800700077
:1032E000E003800F001C043004300C301C18EC0F7D
:1032F00000000000000000000000000000000000CE
:10330000000000000000000000008000800080003D
:10331000C000E000FC1FC000C000C000C000C00032
:10332000C000C000C000C000C020C0208011000F3D
:10333000000000000000000000000000000000008D
:10334000000000000000000000000000000000007D
:10335000000010201E3C183018301830183018307B
:1033600018301830183018301830183830F4E0138E
:10337000000000000000000000000000000000004D
:10338000000000000000000000000000000000003D
:10339000000000007E3C181818083808300430047B
:1033A000700260026002E001C001C001C000800044
:1033B000000000000000000000000000000000000D
:1033C00000000000000000000000000000000000FD
:1033D00000000000DFF78E630C238C238C239813EE
:1033E000981358165816700E700E700E2004200494
:1033F00000000000000000000000000000000000CD
:1034000000000000000000000000000000000000BC
:1034100000000000FC3E70087004E004C002C0011F
:103420008003800340076006200C100C18183E7EB5
:10343000000000000000000000000000000000008C
:10344000000000000000000000000000000000007C
:10345000000000007E7C181818083008300830047E
:1034600060046004C002C002C002800180018001CB
:103470008000800080004C003C0000000000000044
:10348000000000000000000000000000000000003C
:1034900000000000FC1F0C0C040E04060003800357
:1034A0008001C000E0007020302038301C18FC1F64
:1034B000000000000000000000000000000000000C
:1034C00000300008000400040004000400040004AC
:1034D0000004000400040004000280010002000453
:1034E00000040004000400040004000400040004BC
:1034F0000004000400080030000000010001000189
:1035000000010001000100010001000100010001B3
:1035100000010001000100010001000100010001A3
:103520000001000100010001000100010001000193
:103530000001000100010001000100000000000086
:103540000C0010002000200020002000200020009F
:1035500020002000200020004000800140002000CA
:10356000200020002000200020002000200020005B
:103570002000200010000C00000000003800C400F3
:10358000864002610022001C0000000000000000D4
:10359000000000000000000000000000000000002B
:1035A000000000000000000000000000000000001B
:1035B00000000000000000000000D6D08000800065
:1035C00080008000FC1F84108410841084108410FC
:1035D000FC1F84108000800080008000BEB0F80FC7
:1035E0000808F80F0808F80F8000FF7F0000F80FA8
:1035F00008080808F80F80008410A2204000D4B00A
:103600000000FE3F0220F22702200220FA2F222192
:1036100022212221122912290A2E0220FE3F0220F5
:10362000B5E7800080008000FC1F841084108410A7
:10363000FC1F841084108410FC1F84508040804044
:10364000007FD7D30000FE1F0008000400028001A5
:103650008000FF7F8000800080008000800080006C
:10366000A0004000D6D000000000000000180000BC
:103670000800000800000800080818F8FF1F1808D4
:10368000181808181808181808181808181808180A
:10369000F8FF1F08080800080000080000080000E4
:1036A0000800001800001800001800000000BEB05C
:1036B000000000000000400006C0FF07400006C0F8
:1036C000FF07400006C0FF07400802003000FEFF71
:1036D0003F000000C0FF07C00002C00002C000029F
:1036E000C0FF0380100080110160100E3010180C14
:1036F0001E30001C00000000D4B0000000000000DC
:10370000080030F8FF1F08001008C010083F10081C
:103710000010080010080013C8FF1008221008222B
:10372000100822100822100821120821148860169F
:1037300048C013280010080010F8FF1F08001000F0
:103740000000B5E7000000000000001800000800BD
:10375000000800000800F0FF0F1008041008041013
:103760000804100804F0FF071008041008041008EB
:1037700004100804F0FF07100800000810000810EB
:1037800000082000183000F01F000000D7D3000010
:1037900000000000000004F0FF0F00000600000120
:1037A00000C000002800001800001800001830FEBB
:1037B000FF7F001800001800001800001800001813
:1037C00000001800001800001800001800001F007A
:1037D000000C00000000D6D0000000000000000037
:1037E00000800000008001000080010000800100D6
:1037F00000800100008001001080010CF0FFFF0F2D
:1038000030800104308001043080010430800104E4
:1038100030800104308001043080010430800104D4
:10382000F0FFFF07308001043080010400800100B8
:103830000080010000800100008001000080010084
:103840000080010000800100008001000080010074
:103850000080000000000000BEB00000000000007A
:103860000000000000000001800100FFFF010003D4
:1038700080010003800100FFFF01000380010003BD
:10388000800100FFFF0100818100000003000000B3
:10389000031CFCFFFF3F000040000003C00100FFCD
:1038A000FF010003C0000003C0000003C00000FFD0
:1038B000FF000001410000040100000E710000073C
:1038C0008101800101076000010E1898011C04E0CD
:1038D000011800C0000000000000D4B0000000008B
:1038E0000000000000000008F0FFFF1F3000000C87
:1038F0003000000C3000100C30FE3F0C3004000C87
:103900003000000C3000000C3000000C3000C00C07
:10391000F0FFFF0D3030060E3030060C3010060C74
:103920003010060C3010060C3018860C3018860C3F
:103930003008060D300C860D3006EE0F3002FC0DFF
:103940003001000CF000000C3000000CF0FFFF0F05
:103950003000000C1000000400000000B5E700007B
:1039600000000000000000C0000000C0010000C016
:10397000000000C0000000C0000000C00000E0FF28
:10398000FF0360C0000360C0000360C0000360C0AC
:10399000000360C0000360C00003E0FFFF0360C0DD
:1039A000000360C0000360C0000360C0000360C08B
:1039B0000003E0FFFF0360C0000160C0000000C022
:1039C000000800C0001000C0001000C0001800C0B7
:1039D00001380080FF1F0000000000000000D7D366
:1039E00000000000000000000000000000000003D4
:1039F000C0FFFF07000080070000C000000060005B
:103A00000000180000000C0000800300008003008C
:103A100000800100008001080080011CFCFFFF3FC6
:103A20000080010000800100008001000080010092
:103A30000080010000800100008001000080010082
:103A40000080010000800100008001000080010072
:103A500000FC010000E00000004000000000000049
:103A6000803A00080000002010000000C401000897
:103A7000903A000810000020B8060000E00100089D
:103A80000100000010000000000000000024F4000D
:040000050800018965
:00000001FF
